{
  "contractName": "SellerRegistry",
  "abi": [
    {
      "anonymous": false,
      "inputs": [
        {
          "indexed": true,
          "internalType": "address",
          "name": "sellerAddress",
          "type": "address"
        },
        {
          "indexed": false,
          "internalType": "string",
          "name": "name",
          "type": "string"
        },
        {
          "indexed": false,
          "internalType": "string",
          "name": "mobile",
          "type": "string"
        }
      ],
      "name": "SellerRegistered",
      "type": "event"
    },
    {
      "inputs": [
        {
          "internalType": "address",
          "name": "",
          "type": "address"
        }
      ],
      "name": "sellers",
      "outputs": [
        {
          "internalType": "address",
          "name": "sellerAddress",
          "type": "address"
        },
        {
          "internalType": "string",
          "name": "name",
          "type": "string"
        },
        {
          "internalType": "string",
          "name": "mobile",
          "type": "string"
        },
        {
          "internalType": "bool",
          "name": "isRegistered",
          "type": "bool"
        }
      ],
      "stateMutability": "view",
      "type": "function",
      "constant": true
    },
    {
      "inputs": [
        {
          "internalType": "string",
          "name": "_name",
          "type": "string"
        },
        {
          "internalType": "string",
          "name": "_mobile",
          "type": "string"
        }
      ],
      "name": "registerSeller",
      "outputs": [],
      "stateMutability": "nonpayable",
      "type": "function"
    },
    {
      "inputs": [],
      "name": "isSellerRegistered",
      "outputs": [
        {
          "internalType": "bool",
          "name": "",
          "type": "bool"
        }
      ],
      "stateMutability": "view",
      "type": "function",
      "constant": true
    }
  ],
  "bytecode": "0x608060405234801561001057600080fd5b50610ba1806100206000396000f3fe608060405234801561001057600080fd5b50600436106100405760003560e01c8062a214a814610045578063318fd93d146100635780636d47ab721461007f575b600080fd5b61004d6100b2565b60405161005a9190610487565b60405180910390f35b61007d600480360381019061007891906105fc565b610108565b005b610099600480360381019061009491906106d2565b6102ff565b6040516100a9949392919061078d565b60405180910390f35b60008060003373ffffffffffffffffffffffffffffffffffffffff1673ffffffffffffffffffffffffffffffffffffffff16815260200190815260200160002060030160009054906101000a900460ff16905090565b6000803373ffffffffffffffffffffffffffffffffffffffff1673ffffffffffffffffffffffffffffffffffffffff16815260200190815260200160002060030160009054906101000a900460ff1615610197576040517f08c379a000000000000000000000000000000000000000000000000000000000815260040161018e9061082c565b60405180910390fd5b600060405180608001604052803373ffffffffffffffffffffffffffffffffffffffff168152602001848152602001838152602001600115158152509050806000803373ffffffffffffffffffffffffffffffffffffffff1673ffffffffffffffffffffffffffffffffffffffff16815260200190815260200160002060008201518160000160006101000a81548173ffffffffffffffffffffffffffffffffffffffff021916908373ffffffffffffffffffffffffffffffffffffffff16021790555060208201518160010190816102709190610a62565b5060408201518160020190816102869190610a62565b5060608201518160030160006101000a81548160ff0219169083151502179055509050503373ffffffffffffffffffffffffffffffffffffffff167f029a886814235a877cf2ff5df3c674a946b17782bf260ca120b7b951a6d35cc684846040516102f2929190610b34565b60405180910390a2505050565b60006020528060005260406000206000915090508060000160009054906101000a900473ffffffffffffffffffffffffffffffffffffffff16908060010180546103489061087b565b80601f01602080910402602001604051908101604052809291908181526020018280546103749061087b565b80156103c15780601f10610396576101008083540402835291602001916103c1565b820191906000526020600020905b8154815290600101906020018083116103a457829003601f168201915b5050505050908060020180546103d69061087b565b80601f01602080910402602001604051908101604052809291908181526020018280546104029061087b565b801561044f5780601f106104245761010080835404028352916020019161044f565b820191906000526020600020905b81548152906001019060200180831161043257829003601f168201915b5050505050908060030160009054906101000a900460ff16905084565b60008115159050919050565b6104818161046c565b82525050565b600060208201905061049c6000830184610478565b92915050565b6000604051905090565b600080fd5b600080fd5b600080fd5b600080fd5b6000601f19601f8301169050919050565b7f4e487b7100000000000000000000000000000000000000000000000000000000600052604160045260246000fd5b610509826104c0565b810181811067ffffffffffffffff82111715610528576105276104d1565b5b80604052505050565b600061053b6104a2565b90506105478282610500565b919050565b600067ffffffffffffffff821115610567576105666104d1565b5b610570826104c0565b9050602081019050919050565b82818337600083830152505050565b600061059f61059a8461054c565b610531565b9050828152602081018484840111156105bb576105ba6104bb565b5b6105c684828561057d565b509392505050565b600082601f8301126105e3576105e26104b6565b5b81356105f384826020860161058c565b91505092915050565b60008060408385031215610613576106126104ac565b5b600083013567ffffffffffffffff811115610631576106306104b1565b5b61063d858286016105ce565b925050602083013567ffffffffffffffff81111561065e5761065d6104b1565b5b61066a858286016105ce565b9150509250929050565b600073ffffffffffffffffffffffffffffffffffffffff82169050919050565b600061069f82610674565b9050919050565b6106af81610694565b81146106ba57600080fd5b50565b6000813590506106cc816106a6565b92915050565b6000602082840312156106e8576106e76104ac565b5b60006106f6848285016106bd565b91505092915050565b61070881610694565b82525050565b600081519050919050565b600082825260208201905092915050565b60005b8381101561074857808201518184015260208101905061072d565b60008484015250505050565b600061075f8261070e565b6107698185610719565b935061077981856020860161072a565b610782816104c0565b840191505092915050565b60006080820190506107a260008301876106ff565b81810360208301526107b48186610754565b905081810360408301526107c88185610754565b90506107d76060830184610478565b95945050505050565b7f53656c6c657220616c7265616479207265676973746572656400000000000000600082015250565b6000610816601983610719565b9150610821826107e0565b602082019050919050565b6000602082019050818103600083015261084581610809565b9050919050565b7f4e487b7100000000000000000000000000000000000000000000000000000000600052602260045260246000fd5b6000600282049050600182168061089357607f821691505b6020821081036108a6576108a561084c565b5b50919050565b60008190508160005260206000209050919050565b60006020601f8301049050919050565b600082821b905092915050565b60006008830261090e7fffffffffffffffffffffffffffffffffffffffffffffffffffffffffffffffff826108d1565b61091886836108d1565b95508019841693508086168417925050509392505050565b6000819050919050565b6000819050919050565b600061095f61095a61095584610930565b61093a565b610930565b9050919050565b6000819050919050565b61097983610944565b61098d61098582610966565b8484546108de565b825550505050565b600090565b6109a2610995565b6109ad818484610970565b505050565b5b818110156109d1576109c660008261099a565b6001810190506109b3565b5050565b601f821115610a16576109e7816108ac565b6109f0846108c1565b810160208510156109ff578190505b610a13610a0b856108c1565b8301826109b2565b50505b505050565b600082821c905092915050565b6000610a3960001984600802610a1b565b1980831691505092915050565b6000610a528383610a28565b9150826002028217905092915050565b610a6b8261070e565b67ffffffffffffffff811115610a8457610a836104d1565b5b610a8e825461087b565b610a998282856109d5565b600060209050601f831160018114610acc5760008415610aba578287015190505b610ac48582610a46565b865550610b2c565b601f198416610ada866108ac565b60005b82811015610b0257848901518255600182019150602085019450602081019050610add565b86831015610b1f5784890151610b1b601f891682610a28565b8355505b6001600288020188555050505b505050505050565b60006040820190508181036000830152610b4e8185610754565b90508181036020830152610b628184610754565b9050939250505056fea26469706673582212200fd62339a3788ece4b238b4281dfe77ebf140990a5cc878a916e9e44c34c02eb64736f6c63430008110033",
  "immutableReferences": {},
  "source": "// SPDX-License-Identifier: MIT\r\npragma solidity >=0.5.0 <0.9.0;\r\n\r\ncontract SellerRegistry {\r\n\r\n    struct Seller {\r\n        address sellerAddress; // Ethereum address of the seller\r\n        string name;          // Name of the seller\r\n        string mobile;       // mobile number of the seller\r\n        bool isRegistered;    // Flag indicating if the seller is registered\r\n    }\r\n\r\n    // Mapping to store sellers' information by their Ethereum address\r\n    mapping(address => Seller) public sellers;          // creating a map based on seller id\r\n\r\n    // Event to notify when a new seller is registered\r\n    event SellerRegistered(address indexed sellerAddress, string name, string mobile);\r\n\r\n    // Function to register a new seller\r\n    function registerSeller(string memory _name, string memory _mobile) public {\r\n        // Ensure that the seller is not already registered\r\n        require(!sellers[msg.sender].isRegistered, \"Seller already registered\");\r\n\r\n        // Create a new seller object\r\n        Seller memory newSeller = Seller({\r\n            sellerAddress: msg.sender,\r\n            name: _name,\r\n            mobile: _mobile,\r\n            isRegistered: true\r\n        });\r\n\r\n        // Store the seller's information in the mapping\r\n        sellers[msg.sender] = newSeller;\r\n\r\n        // Emit an event to notify the registration\r\n        emit SellerRegistered(msg.sender, _name, _mobile)   ;\r\n    }\r\n\r\n    // Function to check if a seller is registered\r\n    function isSellerRegistered() public view returns (bool) {\r\n        return sellers[msg.sender].isRegistered;\r\n    }\r\n}\r\n",
  "sourcePath": "C:\\Users\\pranjal\\Documents\\vs-code\\Web-Dev\\Blockchain\\odop-blockchain\\contracts\\SellerRegistry.sol",
  "compiler": {
    "name": "solc",
    "version": "0.8.17+commit.8df45f5f.Emscripten.clang"
  },
  "schemaVersion": "3.4.16",
  "updatedAt": "2023-09-16T06:18:44.998Z",
  "networkType": "ethereum",
  "devdoc": {
    "kind": "dev",
    "methods": {},
    "version": 1
  },
  "userdoc": {
    "kind": "user",
    "methods": {},
    "version": 1
  }
}